:020000040800F2
:1000000000500020B10E0008E90D0008EF0D0008B7
:10001000F50D0008FB0D0008010E000800000000AF
:10002000000000000000000000000000070E0008B3
:10003000130E0008000000001F0E00082B0E000821
:10004000F90E0008F90E0008F90E0008F90E000874
:10005000F90E0008F90E0008F90E0008F90E000864
:10006000F90E0008F90E0008F90E0008F90E000854
:10007000F90E0008F90E0008F90E0008F90E000844
:10008000F90E0008F90E0008F90E0008F90E000834
:10009000F90E0008F90E0008F90E0008F90E000824
:1000A000F90E0008F90E0008F90E0008F90E000814
:1000B000F90E0008F90E0008F90E0008F90E000804
:1000C000F90E0008F90E0008F90E0008F90E0008F4
:1000D000F90E0008F90E0008F90E0008F90E0008E4
:1000E000F90E0008F90E0008F90E000800000000E3
:1000F0000000000000000000000000000000000000
:0C01000000000000000000005FF808F1A3
:10010C0010B5054C237833B9044B13B10448AFF345
:10011C0000800123237010BD74000020000000003B
:10012C009C3A000808B5034B1BB103490348AFF3D5
:10013C00008008BD00000000780000209C3A0008F8
:10014C0080B584B000AFF860B9601346FB71FB68F2
:10015C00BA681A60FB68FA791A71FB6804225A7142
:10016C00FB6802229A71FB680822DA71322000F0D7
:10017C0021FF3021F86800F0EFF8052000F01AFF9D
:10018C003021F86800F0E8F8012000F013FF30216E
:10019C00F86800F0E1F8012000F00CFF2021F8686D
:1001AC0000F0DAF8012000F005FF2821F86800F0D3
:1001BC00B3F8FB685B7943F00803DBB21946F868C7
:1001CC0000F0AAF8F86800F010F8FB689B7943F08F
:1001DC000403DBB21946F86800F09EF8642000F0C6
:1001EC00E9FE00BF1037BD4680BD80B582B000AFC0
:1001FC0078600121786800F08FF8022000F0DAFEB8
:10020C0000BF0837BD4680BD80B584B000AF7860B4
:10021C000B46FB701346BB700D4BFB60BB78012B80
:10022C0001D90123BB70BB7810333B4413F8042C69
:10023C00FB781344DBB25BB263F07F035BB2DBB2DF
:10024C001946786800F068F800BF1037BD4680BDCD
:10025C000040145480B582B000AF7860396007E07C
:10026C003B685A1C3A601B781946786800F009F80C
:10027C003B681B78002BF3D100BF00BF0837BD468D
:10028C0080BD80B582B000AF78600B46FB70FB7808
:10029C001946786800F050F800BF0837BD4680BD9D
:1002AC0080B584B000AF78600B46FB701346BB7012
:1002BC0097F9033023F00F035AB297F90230134326
:1002CC005AB27B68DB795BB213435BB2FB73FB788E
:1002DC001B015AB297F9023013435AB27B68DB798F
:1002EC005BB213435BB2BB73FB7B1946786800F0BF
:1002FC0033F8FB7B1946786800F04DF8BB7B194648
:10030C00786800F029F8BB7B1946786800F043F850
:10031C0000BF1037BD4680BD80B582B000AF78609D
:10032C000B46FB70FB78002219467868FFF7B8FF84
:10033C0000BF0837BD4680BD80B582B000AF786085
:10034C000B46FB70FB78012219467868FFF7A8FF73
:10035C0000BF0837BD4680BD80B586B002AF78605F
:10036C000B46FB707B68DA79FB781343DBB2FB73CB
:10037C007B6818687B681B799BB25B0099B207F1AC
:10038C000F024FF0FF330093012301F0FBF900BF84
:10039C001037BD4680BD80B582B000AF78600B468B
:1003AC00FB70FB7843F00403DBB219467868FFF767
:1003BC00D3FF012000F0FEFDFB7823F00403DBB239
:1003CC0019467868FFF7C8FF012000F0F3FD00BF65
:1003DC000837BD4680BD000080B584B000AF7860A2
:1003EC007B681B789BB21946274801F06FF80346CF
:1003FC00002B0CBF01230023DBB2FB7300F0D0FDFC
:10040C00B8607B685B78022B2AD0022B37DC002B80
:10041C0002D0012B0AD032E0FB7B002B2AD07B6868
:10042C00BA685A607B6801225A7023E0FB7B002B70
:10043C0003D17B6800225A701EE07B685B68BA6847
:10044C00D31A142B18D97B6802225A707B680122AC
:10045C001A727B68BA685A607B68BA68DA600BE01B
:10046C00FB7B002B0AD17B6800225A707B68002230
:10047C001A7203E000BF02E000BF00E000BF00BF43
:10048C001037BD4680BD00BF000C014080B584B064
:10049C0000AF78607B685B78022B01D0002315E0FD
:1004AC0000F07EFDF8607B685B68FA68D31AB3F5E0
:1004BC00C87F0AD97B68DB68FA68D31A322B04D957
:1004CC007B68FA68DA60012300E0002318461037D5
:1004DC00BD4680BD80B485B000AF0346FB71FB798F
:1004EC00642B01D96423FB710D4B1B68DB6AFB6029
:1004FC00FB79FA6802FB03F30A4AA2FB03235B09AC
:10050C00BB60074B1B68BA685A63054B1B68F968DC
:10051C00BA688A1A9A6300BF1437BD4680BC70470C
:10052C00E40000201F85EB5180B485B000AF03467A
:10053C00FB71FB79642B01D96423FB710A4B1B689B
:10054C00DB6AFB60FB79FA6802FB03F3074AA2FB48
:10055C0003235B09BB60044B1B68BA681A6400BFB9
:10056C001437BD4680BC7047E40000201F85EB515A
:10057C0080B588B000AF0346FB71002200210A4809
:10058C00FFF742FEFA7907F10C030849184602F00E
:10059C0005FE07F10C0319460348FFF75BFE00BF8D
:1005AC002037BD4680BD00BF2C010020B43A0008A6
:1005BC0080B582B000AF00F09BFC00F017FA00F0A1
:1005CC0017FB00F087FA00F057FA2722934994485A
:1005DC00FFF7B6FD9248FFF708FE924B1B781846C2
:1005EC00FFF778FF8F4B1B781846FFF79DFF8D4B5D
:1005FC001B781846FFF7BCFF8A4B1A788A4B1A7087
:10060C0000218A4802F072F80421884802F06EF842
:10061C000C21864802F06AF88548FFF7DDFE854814
:10062C00FFF7DAFE8448FFF7D7FE8448FFF7D4FEC5
:10063C00834B1B78032B00F2BF8101A252F823F0ED
:10064C005D060008E7060008CB0700082309000830
:10065C007C4B1B78002B17D07148FFF7C6FD00228E
:10066C0000216F48FFF7D0FD77496D48FFF7F2FD89
:10067C00012200216A48FFF7C7FD74496848FFF75B
:10068C00E9FD704B00221A70694B1B7A002B12D0BB
:10069C006B4B01221A706E4B01221A706C4B1B783B
:1006AC001A466C4B9A5C6C4B1A70664B01221A7092
:1006BC005F4B00221A725F4B1B7A002B00F07E817D
:1006CC005F4B03221A705648FFF78FFD5D4B0122DA
:1006DC001A70584B00221A7270E15A4B1B78002B7F
:1006EC002CD04F48FFF781FD002200214C48FFF72A
:1006FC008BFD5A494A48FFF7ADFD012200214848BD
:10070C00FFF782FD56494648FFF7A4FD0122092157
:10071C004348FFF779FD4E4B1B781A464D4B9B5CBB
:10072C001A463B464F49184602F038FD3B461946DF
:10073C003B48FFF78FFD434B00221A703E4B1B7A50
:10074C00002B0FD0424B00221A70414B1B781A46DB
:10075C00404B9A5C404B1A703A4B01221A70364B44
:10076C0000221A72354B1B7A002B0FD0384B01220A
:10077C001A70374B1B781A46364B9A5C364B1A70EC
:10078C00304B01221A702D4B00221A72284B1B7A07
:10079C00002B00F015812E4B1B781A462D4B9A5CC2
:1007AC002D4B1A70264B02221A701D48FFF71DFDA7
:1007BC00244B01221A701E4B00221A7200E10023F6
:1007CC00FB711B4B1B7A002B14D0164B1B781A4653
:1007DC00214B1B781344642B09DC124B1A781E4BEB
:1007EC001B781344DAB20F4B1A700123FB71104BB8
:1007FC0000221A720F4B1B7A002B3DD0094B1A7832
:10080C00154B1B789A422FD3064B1A78124B1B7838
:10081C00D31ADAB2034B1A7029E000BF9000002003
:10082C002C0100200200002003000020E400002026
:10083C0034010020440100205401002064010020F8
:10084C007401002001000020C43A0008D43A0008CA
:10085C00750100201C3B000800000020E43A000851
:10086C00F83A0008043B00085A4B00221A70012386
:10087C00FB71594B00221A725848FFF707FE0346CA
:10088C00002B0BD0534B1B78632B05D8514B1B788B
:10089C000133DAB24F4B1A700123FB714E48FFF74C
:1008AC00F5FD0346002B0FD04A4B1B78002B06D0CE
:1008BC00484B1B78013BDAB2464B1A7002E0454BB1
:1008CC0000221A700123FB71454B1B7A002B05D0BB
:1008DC00444B01221A70424B00221A72424B1B7A73
:1008EC00002B05D03F4B0A221A703F4B00221A7284
:1008FC00FB79002B66D0374B1B781846FFF7EAFDC7
:10090C00344B1B781846FFF70FFE324B1B781846FA
:10091C00FFF72EFE56E00023BB713048FFF7B6FD03
:10092C000346002B0BD02B4B1B78632B05D8294B84
:10093C001B780133DAB2274B1A700123BB7126489E
:10094C00FFF7A4FD0346002B0BD0224B1B78002B8A
:10095C0005D0204B1B78013BDAB21E4B1A700123D9
:10096C00BB711F4B1B7A002B07D01A4B00221A703D
:10097C000123BB711A4B00221A721B4B1B7A002BE2
:10098C0007D0144B64221A700123BB71164B002242
:10099C001A72BB79002B17D00E4B1B781846FFF739
:1009AC0099FD0C4B1B781846FFF7BEFD094B1B78C5
:1009BC001846FFF7DDFD07E000BF06E000BF04E0CE
:1009CC0000BF02E000BF00E000BF0A2000F0F2FA16
:1009DC0022E600BF02000020440100203401002068
:1009EC0054010020000000206401002080B590B06C
:1009FC0000AF07F1180328220021184602F0C6FBAD
:100A0C003B1D00221A605A609A60DA601A61012359
:100A1C00BB614FF48033FB6100233B620123BB625B
:100A2C0002237B634FF48033BB634FF4E013FB630F
:100A3C0007F11803184601F0ABF90346002B01D05F
:100A4C0000F01AF90F237B600223BB600023FB60CC
:100A5C004FF480633B6100237B613B1D02211846F0
:100A6C0001F018FC0346002B01D000F005F900BF83
:100A7C004037BD4680BD000080B500AF124B134A15
:100A8C001A60114B124A5A600F4B00229A600E4B9F
:100A9C000022DA600C4B4FF480421A610A4B0022A0
:100AAC005A61094B00229A61074B0022DA61064B0E
:100ABC0000221A62044800F021FD0346002B01D0ED
:100ACC0000F0DAF800BF80BD900000200054004018
:100ADC00A086010080B58EB000AF07F1280300227C
:100AEC001A605A609A60DA6007F1200300221A60DB
:100AFC005A603B1D00221A605A609A60DA601A61D3
:100B0C005A619A61394B4FF080421A60374B472239
:100B1C005A60364B00229A60344B6322DA60334BB6
:100B2C0000221A61314B00229A61304801F036FDE7
:100B3C000346002B01D000F09FF84FF48053BB62AA
:100B4C0007F128031946294801F030FF0346002B12
:100B5C0001D000F091F8254801F06FFD0346002B01
:100B6C0001D000F089F800233B6200237B6207F17F
:100B7C00200319461D4802F081FA0346002B01D0D0
:100B8C0000F07AF860237B600023BB600023FB60DD
:100B9C0000237B613B1D00221946144801F048FEDE
:100BAC000346002B01D000F067F870237B603B1DDF
:100BBC00042219460D4801F03BFE0346002B01D0E0
:100BCC0000F05AF860237B603B1D0C221946074845
:100BDC0001F02EFE0346002B01D000F04DF8034827
:100BEC0000F0CCF800BF3837BD4680BDE4000020D3
:100BFC0080B588B000AF07F1100300221A605A606C
:100C0C009A60DA601A4B9B69194A43F0200393618E
:100C1C00174B9B6903F02003FB60FB68144B9B692B
:100C2C00134A43F004039361114B9B6903F00403D3
:100C3C00BB60BB680E4B9B690D4A43F00803936184
:100C4C000B4B9B6903F008037B607B684FF470438C
:100C5C003B6100237B610023BB6107F11003194644
:100C6C00044800F0AFFA00BF2037BD4680BD00BF7E
:100C7C0000100240000C014080B400AF72B600BFFF
:100C8C00FEE7000080B483B000AF0E4B9B690D4AA9
:100C9C0043F0010393610B4B9B6903F001037B60F1
:100CAC007B68084BDB69074A43F08053D361054BE3
:100CBC00DB6903F080533B603B6800BF0C37BD46DB
:100CCC0080BC70470010024080B588B000AF7860DF
:100CDC0007F1100300221A605A609A60DA607B6890
:100CEC001B68154A934223D1144B9B69134A43F05A
:100CFC0008039361114B9B6903F00803FB60FB68CD
:100D0C00C0233B6112237B610323FB6107F11003BA
:100D1C0019460B4800F056FA084BDB69074A43F4B6
:100D2C000013D361054BDB6903F40013BB60BB6894
:100D3C0000BF2037BD4680BD00540040001002406B
:100D4C00000C014080B485B000AF78607B681B68F4
:100D5C00B3F1804F0BD1084BDB69074A43F0010319
:100D6C00D361054BDB6903F00103FB60FB6800BF3B
:100D7C001437BD4680BC70470010024080B588B067
:100D8C0000AF786007F1100300221A605A609A6075
:100D9C00DA607B681B68B3F1804F17D10D4B9B69F0
:100DAC000C4A43F0040393610A4B9B6903F0040360
:100DBC00FB60FB680B233B6102237B610223FB611D
:100DCC0007F110031946044800F0FCF900BF203766
:100DDC00BD4680BD001002400008014080B400AF49
:100DEC00FEE780B400AFFEE780B400AFFEE780B44E
:100DFC0000AFFEE780B400AFFEE780B400AF00BFE9
:100E0C00BD4680BC704780B400AF00BFBD4680BCFF
:100E1C00704780B400AF00BFBD4680BC704780B542
:100E2C0000AF00F0ABF800BF80BD000080B586B00D
:100E3C0000AF7860144A154BD31A7B617B693B6118
:100E4C00134B1B68002B02D1114B124A1A60104B2A
:100E5C001A687B6813443A699A4207D202F06CF91B
:100E6C0003460C221A604FF0FF3309E0084B1B6855
:100E7C00FB60074B1A687B681344054A1360FB68D8
:100E8C0018461837BD4680BD0050002000040000F5
:100E9C00780100209001002080B400AF00BFBD4657
:100EAC0080BC70470C480D490D4A002302E0D45811
:100EBC00C4500433C4188C42F9D30A4A0A4C002398
:100ECC0001E013600432A242FBD3FFF7E5FF02F00E
:100EDC0039F9FFF76DFB704700000020740000200B
:100EEC00743B00087400002090010020FEE7000015
:100EFC0080B500AF084B1B68074A43F01003136022
:100F0C00032000F02BF90F2000F008F8FFF7BAFED1
:100F1C000023184680BD00BF0020024080B582B07F
:100F2C0000AF7860124B1A68124B1B7819464FF4BD
:100F3C007A73B3FBF1F3B2FBF3F3184600F035F917
:100F4C000346002B01D001230EE07B680F2B0AD83F
:100F5C00002279684FF0FF3000F00BF9064A7B68ED
:100F6C001360002300E0012318460837BD4680BDFE
:100F7C00040000200C0000200800002080B400AF0A
:100F8C00054B1B781A46054B1B681344034A136028
:100F9C0000BFBD4680BC70470C0000207C010020C7
:100FAC0080B400AF024B1B681846BD4680BC70472E
:100FBC007C01002080B584B000AF7860FFF7F0FFB3
:100FCC00B8607B68FB60FB68B3F1FF3F05D00A4B50
:100FDC001B781A46FB681344FB6000BFFFF7E0FF69
:100FEC000246BB68D31AFA689A42F7D800BF00BF12
:100FFC001037BD4680BD00BF0C00002080B485B00A
:10100C0000AF78607B6803F00703FB600C4BDB6878
:10101C00BB60BA684FF6FF031340BB60FB681A0253
:10102C00BB68134343F0BF6343F40033BB60044A13
:10103C00BB68D36000BF1437BD4680BC704700BF8F
:10104C0000ED00E080B400AF044BDB681B0A03F03A
:10105C0007031846BD4680BC704700BF00ED00E09A
:10106C0080B483B000AF03463960FB7197F9073049
:10107C00002B0ADB3B68DAB20C4997F907301201F6
:10108C00D2B20B4483F800230AE03B68DAB2084979
:10109C00FB7903F00F03043B1201D2B20B441A7616
:1010AC0000BF0C37BD4680BC704700BF00E100E0BC
:1010BC0000ED00E080B489B000AFF860B9607A60F0
:1010CC00FB6803F00703FB61FB69C3F10703042B07
:1010DC0028BF0423BB61FB690433062B02D9FB69CF
:1010EC00033B00E000237B614FF0FF32BB6902FA47
:1010FC0003F3DA43BB681A407B699A404FF0FF3127
:10110C007B6901FA03F3D9437B680B401343184600
:10111C002437BD4680BC704780B582B000AF786084
:10112C007B68013BB3F1807F01D301230FE00A4AB6
:10113C007B68013B53600F214FF0FF30FFF790FFAE
:10114C00054B00229A60044B07221A6000231846B4
:10115C000837BD4680BD00BF10E000E080B582B00E
:10116C0000AF78607868FFF749FF00BF0837BD46CD
:10117C0080BD80B586B000AF0346B9607A60FB7362
:10118C0000237B61FFF75EFF78617A68B968786944
:10119C00FFF790FF024697F90F3011461846FFF7FC
:1011AC005FFF00BF1837BD4680BD80B582B000AF71
:1011BC0078607868FFF7B0FF034618460837BD46DD
:1011CC0080BD000080B48BB000AF78603960002324
:1011DC007B6200233B6269E101227B6A02FA03F322
:1011EC00FB613B681B68FA691340BB61BA69FB6918
:1011FC009A4240F058813B685B689A4A93425ED0B1
:10120C00984A934275D8984A934258D0964A93423A
:10121C006FD8964A934252D0944A934269D8944AD2
:10122C0093424CD0924A934263D8924A934246D00E
:10123C00904A93425DD8122B2AD8122B59D801A26E
:10124C0052F823F0CB120008A5120008B7120008C0
:10125C00F9120008FF120008FF120008FF12000824
:10126C00FF120008FF120008FF120008FF1200080E
:10127C00FF120008FF120008FF120008FF120008FE
:10128C00FF120008FF120008AD120008C11200087E
:10129C00794A934213D02CE03B68DB683B6229E02F
:1012AC003B68DB6804333B6224E03B68DB68083353
:1012BC003B621FE03B68DB680C333B621AE03B6827
:1012CC009B68002B02D104233B6213E03B689B68B4
:1012DC00012B05D108233B627B68FA691A6109E08E
:1012EC0008233B627B68FA695A6103E000233B6286
:1012FC0000E000BFBB69FF2B01D87B6801E07B6875
:10130C0004337B61BB69FF2B02D87B6A9B0002E034
:10131C007B6A083B9B003B617B691A680F213B6928
:10132C0001FA03F3DB431A40396A3B6901FA03F310
:10133C001A437B691A603B685B6803F08053002B8F
:10134C0000F0B1804D4B9B694C4A43F00103936113
:10135C004A4B9B6903F00103BB60BB68484A7B6A3C
:10136C009B08023352F82330FB607B6A03F00303C3
:10137C009B000F2202FA03F3DB43FA681340FB6075
:10138C007B68404A934213D07B683F4A93420DD00E
:10139C007B683E4A934207D07B683D4A934201D119
:1013AC00032306E0042304E0022302E0012300E00F
:1013BC0000237A6A02F0030292009340FA68134306
:1013CC00FB602F497B6A9B080233FA6841F82320A3
:1013DC003B685B6803F48033002B06D02D4B1A68F6
:1013EC002C49BB6913430B6006E02A4B1A68BB6996
:1013FC00DB43284913400B603B685B6803F4003304
:10140C00002B06D0234B5A682249BB6913434B600F
:10141C0006E0204B5A68BB69DB431E4913404B6006
:10142C003B685B6803F48013002B06D0194B9A6859
:10143C001849BB6913438B6006E0164B9A68BB696D
:10144C00DB43144913408B603B685B6803F4001367
:10145C00002B21D00F4BDA680E49BB691343CB60CC
:10146C0021E000BF000032100000311000002210FB
:10147C00000021100000121000001110001002409A
:10148C000000014000080140000C01400010014028
:10149C0000140140000401400B4BDA68BB69DB43CC
:1014AC0009491340CB607B6A01337B623B681A6845
:1014BC007B6A22FA03F3002B7FF48EAE00BF00BFD1
:1014CC002C37BD4680BC70470004014080B485B009
:1014DC0000AF78600B467B807B689A687B881340F2
:1014EC00002B02D00123FB7301E00023FB73FB7B79
:1014FC0018461437BD4680BC7047000080B584B0D8
:10150C0000AF78607B68002B01D101232BE17B6855
:10151C0093F83D30DBB2002B06D17B68002283F8B8
:10152C003C207868FFF7D0FB7B68242283F83D20B1
:10153C007B681B681A687B681B6822F001021A60C2
:10154C007B681B681A687B681B6842F400421A604F
:10155C007B681B681A687B681B6822F400421A605F
:10156C0000F0EAFFF8607B685B68814A934207D819
:10157C00FB68804A934294BF01230023DBB206E050
:10158C00FB687D4A934294BF01230023DBB2002BFE
:10159C0001D00123E7E0FB68784AA2FB03239B0CF4
:1015AC00BB607B681B685B6823F03F017B681B6832
:1015BC00BA680A435A607B681B681B6A23F03F01B8
:1015CC007B685B686A4A934202D8BB68013309E0C6
:1015DC00BB684FF4967202FB03F3694AA2FB032328
:1015EC009B0901337A6812680B4313627B681B6892
:1015FC00DB6923F44F4222F0FF027B685B685C4995
:10160C008B4219D8FB68591E7B685B685B00B1FB89
:10161C00F3F3591C40F6FC730B40002B0AD0FB680B
:10162C00591E7B685B685B00B1FBF3F30133C3F3BA
:10163C000B0351E004234FE07B689B68002B11D116
:10164C00FB68581E7B6859680B465B000B44B0FB6B
:10165C00F3F30133C3F30B03002B0CBF0123002363
:10166C00DBB212E0FB68581E7B6859680B469B0086
:10167C000B4499000B44B0FBF3F30133C3F30B039E
:10168C00002B0CBF01230023DBB2002B01D0012364
:10169C0022E07B689B68002B0ED1FB68581E7B6890
:1016AC0059680B465B000B44B0FBF3F30133C3F3F7
:1016BC000B0343F400430FE0FB68581E7B6859682A
:1016CC000B469B000B4499000B44B0FBF3F3013326
:1016DC00C3F30B0343F44043796809681343CB61AC
:1016EC007B681B681B6823F0C0017B68DA697B6828
:1016FC001B6A1A437B681B680A431A607B681B6869
:10170C009B6823F4034323F0FF037A6811697A681A
:10171C00D26811437A6812680B4393607B681B682C
:10172C00DB6823F0FF017B685A697B689B691A436D
:10173C007B681B680A43DA607B681B681A687B68E5
:10174C001B6842F001021A607B6800221A647B68F5
:10175C00202283F83D207B6800221A637B680022DC
:10176C0083F83E20002318461037BD4680BD00BFCD
:10177C00A08601007F841E00FF083D0083DE1B4312
:10178C00D34D621080B588B002AFF8607A601A460B
:10179C000B467B8113463B81FFF702FC7861FB68AB
:1017AC0093F83D30DBB2202B40F0E0807B69009356
:1017BC00192301227049F86800F064F90346002BE4
:1017CC0001D00223D3E0FB6893F83C30012B01D10C
:1017DC000223CCE0FB68012283F83C20FB681B68E9
:1017EC001B6803F00103012B07D0FB681B681A6808
:1017FC00FB681B6842F001021A60FB681B681A68E0
:10180C00FB681B6822F400621A60FB68212283F8D3
:10181C003D20FB68102283F83E20FB6800221A64EE
:10182C00FB687A685A62FB683A895A85FB685B8D5B
:10183C009AB2FB681A85FB68504ADA6279897B692F
:10184C003A6AF86800F09CF80346002B01D001239B
:10185C008DE000233B61FB681B685B693B61FB68A7
:10186C001B689B693B613B6966E07A69396AF86879
:10187C0000F0DEF90346002B0DD0FB681B6C042B2B
:10188C0007D1FB681B681A68FB681B6842F400727E
:10189C001A6001236BE0FB685B6A1A78FB681B68B3
:1018AC001A61FB685B6A5A1CFB685A62FB685B8DA9
:1018BC009BB2013B9AB2FB685A85FB681B8D013BBE
:1018CC009AB2FB681A85FB681B685B6903F004031A
:1018DC00042B1BD1FB681B8D002B17D0FB685B6A9C
:1018EC001A78FB681B681A61FB685B6A5A1CFB68F8
:1018FC005A62FB685B8D9BB2013B9AB2FB685A85BE
:10190C00FB681B8D013B9AB2FB681A857A69396AB0
:10191C00F86800F0CEF90346002B0DD0FB681B6C69
:10192C00042B07D1FB681B681A68FB681B6842F420
:10193C0000721A6001231AE0FB681B8D002B94D1F6
:10194C00FB681B681A68FB681B6842F400721A601B
:10195C00FB68202283F83D20FB68002283F83E20A0
:10196C00FB68002283F83C20002300E00223184689
:10197C001837BD4680BD00BF020010000000FFFFFD
:10198C0080B588B002AFF8607A603B600B467B8113
:10199C00FB68DB6A7B617B69082B06D07B69012BBA
:1019AC0003D07B6913F5803F08D1FB681B681A686C
:1019BC00FB681B6842F480721A600BE0FB681B6BBF
:1019CC00122B07D1FB681B681A68FB681B6842F472
:1019DC0080721A603B6800937B6800224FF0011103
:1019EC00F86800F04FF80346002B0DD0FB681B681D
:1019FC001B6803F48073B3F5807F03D1FB684FF44D
:101A0C0000721A64032335E0FB681B69B3F5804F41
:101A1C0008D17B89DBB21A46FB681B6802F0FE0218
:101A2C001A611BE07B89DB11DBB203F00603DBB22E
:101A3C0063F00F03DAB2FB681B681A613B687A68C3
:101A4C000E49F86800F075F80346002B01D001230D
:101A5C0010E07B89DAB2FB681B681A613B687A6814
:101A6C000749F86800F065F80346002B01D0012304
:101A7C0000E0002318461837BD4680BD0800010061
:101A8C000200010080B584B000AFF860B9603B6023
:101A9C001346FB7125E03B68B3F1FF3F21D0FFF704
:101AAC007FFA0246BB69D31A3A689A4202D33B6862
:101ABC00002B16D1FB6800221A63FB68202283F8E6
:101ACC003D20FB68002283F83E20FB681B6C43F032
:101ADC002002FB681A64FB68002283F83C20012377
:101AEC0023E0BB681B0CDBB2012B0DD1FB681B6820
:101AFC005B69DA43BB6813409BB2002B0CBF01231C
:101B0C000023DBB21A460CE0FB681B689B69DA43C6
:101B1C00BB6813409BB2002B0CBF01230023DBB22C
:101B2C001A46FB799A42B6D0002318461037BD46A8
:101B3C0080BD80B584B000AFF860B9607A603B605E
:101B4C0051E0FB681B685B6903F48063B3F5806F3D
:101B5C0023D1FB681B681A68FB681B6842F400728F
:101B6C001A60FB681B686FF480625A61FB68002284
:101B7C001A63FB68202283F83D20FB68002283F85F
:101B8C003E20FB681B6C43F00402FB681A64FB6884
:101B9C00002283F83C20012346E07B68B3F1FF3F31
:101BAC0021D0FFF7FDF902463B68D31A7A689A42B6
:101BBC0002D37B68002B16D1FB6800221A63FB68EA
:101BCC00202283F83D20FB68002283F83E20FB682E
:101BDC001B6C43F02002FB681A64FB68002283F83C
:101BEC003C20012320E0BB681B0CDBB2012B0CD189
:101BFC00FB681B685B69DA43BB6813409BB2002B24
:101C0C0014BF01230023DBB20BE0FB681B689B694C
:101C1C00DA43BB6813409BB2002B14BF0123002393
:101C2C00DBB2002B8DD1002318461037BD4680BD8A
:101C3C0080B584B000AFF860B9607A602DE0F868C8
:101C4C0000F078F80346002B01D001232DE0BB688F
:101C5C00B3F1FF3F21D0FFF7A3F902467B68D31AFB
:101C6C00BA689A4202D3BB68002B16D1FB680022DB
:101C7C001A63FB68202283F83D20FB68002283F85E
:101C8C003E20FB681B6C43F02002FB681A64FB6867
:101C9C00002283F83C20012307E0FB681B685B698A
:101CAC0003F08003802BCAD1002318461037BD46A1
:101CBC0080BD80B584B000AFF860B9607A602DE06B
:101CCC00F86800F037F80346002B01D001232DE013
:101CDC00BB68B3F1FF3F21D0FFF762F902467B6886
:101CEC00D31ABA689A4202D3BB68002B16D1FB6890
:101CFC0000221A63FB68202283F83D20FB68002237
:101D0C0083F83E20FB681B6C43F02002FB681A64CE
:101D1C00FB68002283F83C20012307E0FB681B686A
:101D2C005B6903F00403042BCAD100231846103757
:101D3C00BD4680BD80B483B000AF78607B681B6803
:101D4C005B6903F48063B3F5806F1BD17B681B6800
:101D5C006FF480625A617B6800221A637B682022D0
:101D6C0083F83D207B68002283F83E207B681B6C47
:101D7C0043F004027B681A647B68002283F83C20E1
:101D8C00012300E0002318460C37BD4680BC704789
:101D9C0080B586B000AF78607B68002B01D1012341
:101DAC0072E27B681B6803F00103002B00F0878054
:101DBC00924B5B6803F00C03042B0CD08F4B5B68CD
:101DCC0003F00C03082B12D18C4B5B6803F48033AB
:101DDC00B3F5803F0BD1894B1B6803F40033002B08
:101DEC006CD07B685B68002B68D101234CE27B686C
:101DFC005B68B3F5803F06D1804B1B687F4A43F488
:101E0C00803313602EE07B685B68002B0CD17B4B1E
:101E1C001B687A4A23F480331360784B1B68774A2B
:101E2C0023F4802313601DE07B685B68B3F5A02F5F
:101E3C000CD1724B1B68714A43F4802313606F4BB7
:101E4C001B686E4A43F4803313600BE06B4B1B68CA
:101E5C006A4A23F480331360684B1B68674A23F487
:101E6C00802313607B685B68002B13D0FFF798F816
:101E7C00386108E0FFF794F802463B69D31A642BEB
:101E8C0001D9032300E25D4B1B6803F40033002BE4
:101E9C00F0D014E0FFF784F8386108E0FFF780F821
:101EAC0002463B69D31A642B01D90323ECE1534B53
:101EBC001B6803F40033002BF0D100E000BF7B68FB
:101ECC001B6803F00203002B63D04C4B5B6803F0E0
:101EDC000C03002B0BD0494B5B6803F00C03082B55
:101EEC001CD1464B5B6803F48033002B16D1434B5B
:101EFC001B6803F00203002B05D07B681B69012BC8
:101F0C0001D00123C0E13D4B1B6823F0F8027B6834
:101F1C005B69DB00394913430B603AE07B681B6952
:101F2C00002B20D0364B01221A60FFF739F83861AC
:101F3C0008E0FFF735F802463B69D31A022B01D9AA
:101F4C000323A1E12D4B1B6803F00203002BF0D0FF
:101F5C002A4B1B6823F0F8027B685B69DB0027497E
:101F6C0013430B6015E0264B00221A60FFF718F89C
:101F7C00386108E0FFF714F802463B69D31A022BCC
:101F8C0001D9032380E11D4B1B6803F00203002BD6
:101F9C00F0D17B681B6803F00803002B3AD07B68F8
:101FAC009B69002B19D0174B01221A60FEF7F8FF22
:101FBC00386108E0FEF7F4FF02463B69D31A022BA6
:101FCC0001D9032360E10D4B5B6A03F00203002B84
:101FDC00F0D0012000F0C4FA1CE00A4B00221A6079
:101FEC00FEF7DEFF38610FE0FEF7DAFF02463B69D1
:101FFC00D31A022B08D9032346E100BF001002407C
:10200C000000424280044242924B5B6A03F002039E
:10201C00002BE9D17B681B6803F00403002B00F054
:10202C00A6800023FB758B4BDB6903F08053002BE0
:10203C000DD1884BDB69874A43F08053D361854BC4
:10204C00DB6903F08053BB60BB680123FB75824BDB
:10205C001B6803F48073002B18D17F4B1B687E4ADE
:10206C0043F480731360FEF79BFF386108E0FEF7C2
:10207C0097FF02463B69D31A642B01D9032303E172
:10208C00754B1B6803F48073002BF0D07B68DB6806
:10209C00012B06D16F4B1B6A6E4A43F0010313628E
:1020AC002DE07B68DB68002B0CD16A4B1B6A694AFC
:1020BC0023F001031362674B1B6A664A23F0040387
:1020CC0013621CE07B68DB68052B0CD1614B1B6A2F
:1020DC00604A43F0040313625E4B1B6A5D4A43F093
:1020EC00010313620BE05B4B1B6A5A4A23F001039A
:1020FC001362584B1B6A574A23F0040313627B6824
:10210C00DB68002B15D0FEF74BFF38610AE0FEF7B9
:10211C0047FF02463B69D31A41F28832934201D9F8
:10212C000323B1E04B4B1B6A03F00203002BEED0F0
:10213C0014E0FEF735FF38610AE0FEF731FF024686
:10214C003B69D31A41F28832934201D903239BE0B5
:10215C00404B1B6A03F00203002BEED1FB7D012BDD
:10216C0005D13C4BDB693B4A23F08053D3617B6840
:10217C00DB69002B00F08780364B5B6803F00C03A7
:10218C00082B61D07B68DB69022B46D1334B0022D4
:10219C001A60FEF705FF386108E0FEF701FF024602
:1021AC003B69D31A022B01D903236DE0294B1B6821
:1021BC0003F00073002BF0D17B681B6AB3F5803FF2
:1021CC0008D1244B5B6823F400327B689B6821495F
:1021DC0013434B601F4B5B6823F474127B68196AC2
:1021EC007B685B6A0B431B4913434B601B4B0122FF
:1021FC001A60FEF7D5FE386108E0FEF7D1FE024604
:10220C003B69D31A022B01D903233DE0114B1B6808
:10221C0003F00073002BF0D035E0104B00221A6055
:10222C00FEF7BEFE386108E0FEF7BAFE02463B69D7
:10223C00D31A022B01D9032326E0064B1B6803F0AB
:10224C000073002BF0D11EE07B68DB69012B07D1FA
:10225C00012319E00010024000700040600042426F
:10226C000B4B5B68FB60FB6803F480327B681B6A7A
:10227C009A4206D1FB6803F470127B685B6A9A423F
:10228C0001D0012300E0002318461837BD4680BD5D
:10229C000010024080B584B000AF786039607B6874
:1022AC00002B01D10123D0E06A4B1B6803F007031C
:1022BC003A689A4210D9674B1B6823F007026549AC
:1022CC003B6813430B60634B1B6803F007033A68CE
:1022DC009A4201D00123B8E07B681B6803F002032B
:1022EC00002B20D07B681B6803F00403002B05D067
:1022FC00594B5B68584A43F4E06353607B681B6836
:10230C0003F00803002B05D0534B5B68524A43F48F
:10231C0060535360504B5B6823F0F0027B689B6802
:10232C004D4913434B607B681B6803F00103002B82
:10233C0040D07B685B68012B07D1474B1B6803F4CB
:10234C000033002B15D101237FE07B685B68022BE7
:10235C0007D1414B1B6803F00073002B09D10123FB
:10236C0073E03D4B1B6803F00203002B01D10123EA
:10237C006BE0394B5B6823F003027B685B68364982
:10238C0013434B60FEF70CFEF8600AE0FEF708FE04
:10239C000246FB68D31A41F28832934201D90323D7
:1023AC0053E02D4B5B6803F00C027B685B689B0071
:1023BC009A42EBD1274B1B6803F007033A689A4209
:1023CC0010D2244B1B6823F0070222493B681343AD
:1023DC000B60204B1B6803F007033A689A4201D04C
:1023EC00012332E07B681B6803F00403002B08D048
:1023FC00194B5B6823F4E0627B68DB681649134376
:10240C004B607B681B6803F00803002B09D0124B50
:10241C005B6823F460527B681B69DB000E49134335
:10242C004B6000F021F802460B4B5B681B0903F074
:10243C000F030A49CB5C22FA03F3094A1360094BD8
:10244C001B681846FEF76AFD002318461037BD4678
:10245C0080BD00BF0020024000100240203B00085D
:10246C00040000200800002090B48AB000AF294B73
:10247C003C1D0FCB84E80F0040F201233B8000236E
:10248C00FB610023BB6100237B6200237B61002383
:10249C003B62214B5B68FB61FB6903F00C03042B73
:1024AC0002D0082B03D02BE01C4B3B622BE0FB69CA
:1024BC009B0C03F00F0328333B4413F8243C7B6143
:1024CC00FB6903F48033002B12D0134B5B685B0C5D
:1024DC0003F0010328333B4413F8283CBB617B69B0
:1024EC000E4A03FB02F2BB69B2FBF3F37B6204E01E
:1024FC007B690B4A02FB03F37B627B6A3B6202E063
:10250C00064B3B6200BF3B6A18462837BD4690BC61
:10251C00704700BF0C3B00080010024000127A000C
:10252C0000093D0080B400AF024B1B681846BD4645
:10253C0080BC70470400002080B500AFFFF7F2FFAD
:10254C000246054B5B681B0A03F007030349CB5C8F
:10255C0022FA03F3184680BD00100240303B0008FD
:10256C0080B485B000AF78600A4B1B680A4AA2FBA6
:10257C0003235B0A7A6802FB03F3FB6000BFFB6872
:10258C005A1EFA60002BF9D100BF00BF1437BD46AC
:10259C0080BC704704000020D34D621080B582B01F
:1025AC0000AF78607B68002B01D1012341E07B6890
:1025BC0093F83D30DBB2002B06D17B68002283F808
:1025CC003C207868FEF7BEFB7B68022283F83D2036
:1025DC007B681A687B6804331946104600F0AAFA27
:1025EC007B68012283F846207B68012283F83E2019
:1025FC007B68012283F83F207B68012283F840200E
:10260C007B68012283F841207B68012283F84220F9
:10261C007B68012283F843207B68012283F84420E5
:10262C007B68012283F845207B68012283F83D20DA
:10263C00002318460837BD4680BD80B582B000AF78
:10264C0078607B68002B01D1012341E07B6893F813
:10265C003D30DBB2002B06D17B68002283F83C2096
:10266C00786800F039F87B68022283F83D207B689B
:10267C001A687B6804331946104600F05BFA7B68D5
:10268C00012283F846207B68012283F83E207B6878
:10269C00012283F83F207B68012283F840207B686D
:1026AC00012283F841207B68012283F842207B6859
:1026BC00012283F843207B68012283F844207B6845
:1026CC00012283F845207B68012283F83D200023FA
:1026DC0018460837BD4680BD80B483B000AF786023
:1026EC0000BF0C37BD4680BC7047000080B584B07D
:1026FC0000AF786039603B68002B09D17B6893F898
:10270C003E30DBB2012B14BF01230023DBB222E0ED
:10271C003B68042B09D17B6893F83F30DBB2012B6B
:10272C0014BF01230023DBB215E03B68082B09D151
:10273C007B6893F84030DBB2012B14BF01230023DC
:10274C00DBB208E07B6893F84130DBB2012B14BF9D
:10275C0001230023DBB2002B01D001235EE03B6898
:10276C00002B04D17B68022283F83E2013E03B68E7
:10277C00042B04D17B68022283F83F200BE03B68DA
:10278C00082B04D17B68022283F8402003E07B688D
:10279C00022283F841207B681B68012239681846A5
:1027AC0000F048FC7B681B681E4A934207D17B688B
:1027BC001B685A6C7B681B6842F400425A647B6845
:1027CC001B68184A93420ED07B681B68B3F1804F8C
:1027DC0009D07B681B68144A934204D07B681B6841
:1027EC00124A934211D17B681B689B6803F0070364
:1027FC00FB60FB68062B10D07B681B681A687B6833
:10280C001B6842F001021A6007E07B681B681A68BB
:10281C007B681B6842F001021A60002318461037CF
:10282C00BD4680BD002C0140000400400008004063
:10283C0080B584B000AFF860B9607A60FB6893F83B
:10284C003C30012B01D10223ACE0FB68012283F860
:10285C003C207B680C2B00F29F8001A252F823F0E5
:10286C00A1280008A5290008A5290008A529000809
:10287C00E1280008A5290008A5290008A5290008B9
:10288C0023290008A5290008A5290008A529000866
:10289C0063290008FB681B68B968184600F0ACF99E
:1028AC00FB681B689A69FB681B6842F008029A6116
:1028BC00FB681B689A69FB681B6822F004029A612A
:1028CC00FB681B689969BB681A69FB681B680A433B
:1028DC009A6162E0FB681B68B968184600F0F2F96F
:1028EC00FB681B689A69FB681B6842F400629A617A
:1028FC00FB681B689A69FB681B6822F480629A610A
:10290C00FB681B689969BB681B691A02FB681B682A
:10291C000A439A6141E0FB681B68B968184600F0ED
:10292C003BFAFB681B68DA69FB681B6842F008021B
:10293C00DA61FB681B68DA69FB681B6822F0040229
:10294C00DA61FB681B68D969BB681A69FB681B688C
:10295C000A43DA6121E0FB681B68B968184600F08D
:10296C0085FAFB681B68DA69FB681B6842F4006235
:10297C00DA61FB681B68DA69FB681B6822F4806209
:10298C00DA61FB681B68D969BB681B691A02FB68B2
:10299C001B680A43DA6100E000BFFB68002283F881
:1029AC003C20002318461037BD4680BD80B584B04E
:1029BC0000AF786039607B6893F83C30012B01D113
:1029CC000223B3E07B68012283F83C207B6802225F
:1029DC0083F83D207B681B689B68FB60FB6823F0D9
:1029EC007703FB60FB6823F47F43FB607B681B6809
:1029FC00FA689A603B681B68B3F5005F3ED0B3F58C
:102A0C00005F00F28780B3F5805F00F08580B3F53E
:102A1C00805F7FD8702B1AD0702B7BD8602B50D056
:102A2C00602B77D8502B3CD0502B73D8402B58D0E0
:102A3C00402B6FD8302B64D0302B6BD8202B60D030
:102A4C00202B67D8002B5CD0102B5AD062E07B680F
:102A5C0018683B6899683B685A683B68DB6800F00B
:102A6C00CAFA7B681B689B68FB60FB6843F07703C2
:102A7C00FB607B681B68FA689A604EE07B6818689C
:102A8C003B6899683B685A683B68DB6800F0B3FAAE
:102A9C007B681B689A687B681B6842F480429A606A
:102AAC003BE07B6818683B6859683B68DB681A46F2
:102ABC0000F02AFA7B681B685021184600F081FA56
:102ACC002BE07B6818683B6859683B68DB681A46E2
:102ADC0000F048FA7B681B686021184600F071FA18
:102AEC001BE07B6818683B6859683B68DB681A46D2
:102AFC0000F00AFA7B681B684021184600F061FA66
:102B0C000BE07B681A683B681B681946104600F09E
:102B1C0058FA02E000BF00E000BF7B68012283F896
:102B2C003D207B68002283F83C2000231846103798
:102B3C00BD4680BD80B485B000AF786039607B68DD
:102B4C001B68FB607B68294A93420BD07B68B3F10E
:102B5C00804F07D07B68264A934203D07B68254A76
:102B6C00934208D1FB6823F07003FB603B685B6801
:102B7C00FA681343FB607B681C4A93420BD07B685A
:102B8C00B3F1804F07D07B68194A934203D07B681E
:102B9C00184A934208D1FB6823F44073FB603B68EE
:102BAC00DB68FA681343FB60FB6823F080023B6828
:102BBC005B691343FB607B68FA681A603B689A6830
:102BCC007B68DA623B681A687B689A627B68074AA2
:102BDC00934203D13B681A697B681A637B680122B4
:102BEC005A6100BF1437BD4680BC7047002C0140B1
:102BFC00000400400008004080B487B000AF78604B
:102C0C0039607B681B6A23F001027B681A627B685F
:102C1C001B6A7B617B685B683B617B689B69FB60C3
:102C2C00FB6823F07003FB60FB6823F00303FB607D
:102C3C003B681B68FA681343FB607B6923F0020353
:102C4C007B613B689B687A6913437B617B681C4A98
:102C5C0093420CD17B6923F008037B613B68DB68F2
:102C6C007A6913437B617B6923F004037B617B6886
:102C7C00134A934211D13B6923F480733B613B6946
:102C8C0023F400733B613B685B693A6913433B6116
:102C9C003B689B693A6913433B617B683A695A60AC
:102CAC007B68FA689A613B685A687B685A637B68F0
:102CBC007A691A6200BF1C37BD4680BC704700BFE2
:102CCC00002C014080B487B000AF786039607B681D
:102CDC001B6A23F010027B681A627B681B6A7B619B
:102CEC007B685B683B617B689B69FB60FB6823F4DA
:102CFC00E043FB60FB6823F44073FB603B681B689C
:102D0C001B02FA681343FB607B6923F020037B6191
:102D1C003B689B681B017A6913437B617B681D4A86
:102D2C0093420DD17B6923F080037B613B68DB68A8
:102D3C001B017A6913437B617B6923F040037B6140
:102D4C007B68144A934213D13B6923F480633B6143
:102D5C003B6923F400633B613B685B699B003A6908
:102D6C0013433B613B689B699B003A6913433B618E
:102D7C007B683A695A607B68FA689A613B685A6862
:102D8C007B689A637B687A691A6200BF1C37BD4600
:102D9C0080BC7047002C014080B487B000AF7860D5
:102DAC0039607B681B6A23F480727B681A627B68CB
:102DBC001B6A7B617B685B683B617B68DB69FB60E2
:102DCC00FB6823F07003FB60FB6823F00303FB60DC
:102DDC003B681B68FA681343FB607B6923F4007340
:102DEC007B613B689B681B027A6913437B617B6840
:102DFC001D4A93420DD17B6923F400637B613B68D0
:102E0C00DB681B027A6913437B617B6923F4806363
:102E1C007B617B68144A934213D13B6923F4805342
:102E2C003B613B6923F400533B613B685B691B01CD
:102E3C003A6913433B613B689B691B013A69134335
:102E4C003B617B683A695A607B68FA68DA613B6877
:102E5C005A687B68DA637B687A691A6200BF1C3730
:102E6C00BD4680BC704700BF002C014080B487B0C9
:102E7C0000AF786039607B681B6A23F480527B68F2
:102E8C001A627B681B6A3B617B685B687B617B6851
:102E9C00DB69FB60FB6823F4E043FB60FB6823F415
:102EAC004073FB603B681B681B02FA681343FB60B2
:102EBC003B6923F400533B613B689B681B033A69F5
:102ECC0013433B617B680F4A934209D17B6923F41E
:102EDC0080437B613B685B699B017A6913437B612F
:102EEC007B687A695A607B68FA68DA613B685A6871
:102EFC007B681A647B683A691A6200BF1C37BD464E
:102F0C0080BC7047002C014080B487B000AFF860E3
:102F1C00B9607A60FB681B6A7B61FB681B6A23F0F3
:102F2C000102FB681A62FB689B693B613B6923F0F9
:102F3C00F0033B617B681B013A6913433B617B697E
:102F4C0023F00A037B617A69BB6813437B61FB68DE
:102F5C003A699A61FB687A691A6200BF1C37BD46F0
:102F6C0080BC704780B487B000AFF860B9607A60FD
:102F7C00FB681B6A23F01002FB681A62FB689B69F2
:102F8C007B61FB681B6A3B617B6923F470437B614B
:102F9C007B681B037A6913437B613B6923F0A003B5
:102FAC003B61BB681B013A6913433B61FB687A695F
:102FBC009A61FB683A691A6200BF1C37BD4680BC37
:102FCC00704780B485B000AF786039607B689B68CF
:102FDC00FB60FB6823F07003FB603A68FB681343EB
:102FEC0043F00703FB607B68FA689A6000BF1437F4
:102FFC00BD4680BC704780B487B000AFF860B96044
:10300C007A603B60FB689B687B617B6923F47F4340
:10301C007B613B681A027B681A43BB6813437A696D
:10302C0013437B61FB687A699A6000BF1C37BD460D
:10303C0080BC704780B487B000AFF860B9607A602C
:10304C00BB6803F01F03012202FA03F37B61FB68E8
:10305C001A6A7B69DB431A40FB681A62FB681A6ABE
:10306C00BB6803F01F03796801FA03F31A43FB688A
:10307C001A6200BF1C37BD4680BC704780B485B057
:10308C0000AF786039607B6893F83C30012B01D13C
:10309C00022346E07B68012283F83C207B680222F5
:1030AC0083F83D207B681B685B68FB607B681B6852
:1030BC009B68BB60FB6823F07003FB603B681B687C
:1030CC00FA681343FB607B681B68FA685A607B687C
:1030DC001B68164A93420ED07B681B68B3F1804F75
:1030EC0009D07B681B68124A934204D07B681B682A
:1030FC00104A93420CD1BB6823F08003BB603B6841
:10310C005B68BA681343BB607B681B68BA689A60DB
:10311C007B68012283F83D207B68002283F83C20E9
:10312C00002318461437BD4680BC7047002C014064
:10313C000004004000080040014B1868704700BFB5
:10314C001000002070B500260C4D0D4C641BA41013
:10315C00A64209D100F09CFC00260A4D0A4C641BC7
:10316C00A410A64205D170BD55F8043B9847013612
:10317C00EEE755F8043B98470136F2E76C3B000844
:10318C006C3B00086C3B0008703B00080346024493
:10319C00934200D1704703F8011BF9E70EB46FF0AE
:1031AC00004100B59CB01DAB0290069007910491B4
:1031BC000848094953F8042B0591006802A90193AA
:1031CC0000F068F80022029B1A701CB05DF804EB4A
:1031DC0003B07047100000200802FFFF2DE9F047F4
:1031EC008E6882469E420C4690461F4638D88A8985
:1031FC0012F4906F32D0256809690133A5EB0109EF
:10320C0065694B4405EB450505EBD5756D109D4285
:10321C0038BF1D46530531D5294600F06FFB0646D5
:10322C0050B90C234FF0FF30CAF80030A38943F09B
:10323C004003A381BDE8F0874A46216900F0CEFA2D
:10324C00A38923F4906343F08003A38126614E4449
:10325C0026603E466561A5EB0905A560BE4200D916
:10326C003E4632464146206800F0C6FAA36800206C
:10327C009B1BA360236833442360DBE72A4600F0E2
:10328C00B1FB06460028E1D15046216900F0CEFA88
:10329C00C7E700002DE9F04F98468B8907461B06BF
:1032AC000D4614469DB00ED50B6963B9402100F054
:1032BC0025FB2860286120B90C233B604FF0FF30C0
:1032CC00D1E040236B610023099320238DF8293032
:1032DC0030234FF00109CDF80C80DFF8A4818DF874
:1032EC002A3023469A4613F8012B0AB1252AF9D124
:1032FC00BAEB040B0BD05B46224629463846FFF747
:10330C006DFF013000F0AA80099A5A4409929AF88C
:10331C000030002B00F0A28000234FF0FF32CDE9EB
:10332C0005230AF1010A049307938DF853301A937D
:10333C005446052214F8011B514800F041FA049A36
:10334C00D8B9D00644BF20238DF85330110744BFA1
:10335C002B238DF853309AF800302A2B15D0544675
:10336C0000204FF00A0C079A214611F8013B303B24
:10337C00092B4ED9B0B1079214E0A0EB080309FA5F
:10338C0003F31343A2460493D2E7039B191D1B6856
:10339C000391002BBBBF5B4242F0020207930793E1
:1033AC00B8BF049223782E2B0CD163782A2B35D1FD
:1033BC00039B02341A1D1B680392002BB8BF4FF0FD
:1033CC00FF330593DFF8BCA003225046217800F0B0
:1033DC00F7F940B14023A0EB0A0003FA00F0049B7C
:1033EC0001340343049314F8011B062226488DF87C
:1033FC00281000F0E5F9002838D0244B1BBB039BA8
:10340C00073323F0070308330393099B33440993D1
:10341C0067E70C4601200CFB0232A5E700234FF0B6
:10342C000A0C194601340593204610F8012B303A4A
:10343C00092A03D9002BC5D00591C3E70446012303
:10344C000CFB0121F0E703AB00932A463846104BE6
:10345C0004A9AFF30080421C0646D6D1AB895B06AB
:10346C003FF52CAF09981DB0BDE8F08F03AB00936E
:10347C002A463846064B04A900F07CF8EBE700BF5F
:10348C00383B00083E3B0008423B000800000000AF
:10349C00E93100082DE9F047164699468A680B6910
:1034AC0007469342B8BF1346336091F843200C464D
:1034BC00DDF820800AB1013333602368990642BFDE
:1034CC00336802333360256815F0060506D104F124
:1034DC00190AE36832689B1AAB4228DC94F8432043
:1034EC00131E226818BF012392062DD44946384674
:1034FC0004F14302C047013020D02368E56803F093
:10350C000603042B18BF002532684FF00006A36891
:10351C0008BFAD1A226908BF25EAE5759342C4BFFE
:10352C009B1AED181A34B5421AD1002008E0012379
:10353C00524649463846C047013003D14FF0FF3060
:10354C00BDE8F0870135C4E73020E11881F843006D
:10355C005A1C94F845102244023382F84310C5E7F4
:10356C000123224649463846C0470130E6D0013691
:10357C00D9E700002DE9FF470F7E9146782F804652
:10358C000C469A460C9D01F1430207D8622F0AD8CB
:10359C00002F00F0D980582F00F0A48004F14205D0
:1035AC0084F842703AE0A7F16303152BF6D801A119
:1035BC0051F823F0193600082D360008A9350008FB
:1035CC00A9350008A9350008A93500082D360008D2
:1035DC00A9350008A9350008A9350008A935000847
:1035EC003B3700085D3600081D370008A935000878
:1035FC00A93500085D370008A93500085D360008BC
:10360C00A9350008A9350008253700082B681A1DB4
:10361C001B682A6004F1420584F842300123A4E0BF
:10362C0020682968060601F104030AD50E682B6090
:10363C00002E03DA2D23764284F843300A235E48A9
:10364C0019E00E6810F0400F2B6018BF36B2EFE790
:10365C002B682068191D2960010601D51E6802E03F
:10366C004606FBD51E886F2F0CBF08230A23524831
:10367C00002184F843106568002DA8BF2168A5605F
:10368C00A4BF21F0040121600EB9002D4DD01546C8
:10369C00B6FBF3F103FB1167C75D05F8017D3746F7
:1036AC00BB420E46F4D9082B0BD12368DE0708D594
:1036BC00236961689942DEBF302305F8013C05F1AE
:1036CC00FF35521B22614B4621464046CDF800A0E7
:1036DC0003AAFFF7DFFE01304CD14FF0FF3004B0EE
:1036EC00BDE8F087344881F845702968236851F8A3
:1036FC00046B29601D0614D5DF0744BF43F020037B
:10370C0023601EB9236823F0200323601023AFE746
:10371C00236843F0200323607823284884F845303D
:10372C00E3E7590648BFB6B2E6E71546BBE72B6898
:10373C002668181D6169286035061B6801D519605B
:10374C0002E07006FBD51980002315462361BAE709
:10375C002B6800211A1D2A601D686268284600F03B
:10376C002FF808B1401B606063682361002384F864
:10377C004330A8E72A46494640462369D0470130E2
:10378C00ABD023689B0713D4E068039B9842B8BF67
:10379C001846A4E70123324649464046D04701303B
:1037AC009BD00135E36803995B1AAB42F2DCEBE783
:1037BC00002504F11906F5E7493B00085A3B0008BF
:1037CC00034610B5C9B202449342184601D10020F9
:1037DC0003E0047801338C42F6D110BD0A449142C7
:1037EC0000F1FF3300D1704710B511F8014B914235
:1037FC0003F8014FF9D110BD884210B501EB02045A
:10380C0002D98442234607D8431EA14208D011F89E
:10381C00012B03F8012FF8E7014602448A4200D13C
:10382C0010BD13F8014D02F8014DF7E738B5054608
:10383C00002940D051F8043C0C1F002BB8BFE418F1
:10384C0000F010F91C4A136833B963601460284601
:10385C00BDE8384000F00CB9A34208D92068211803
:10386C008B4201BF19685B6809182160EDE71A46A5
:10387C005B680BB1A342FAD911685018A0420BD166
:10388C0020680144501883421160E0D118685B68CD
:10389C00014411605360DAE702D90C232B60D6E7A0
:1038AC00206821188B4201BF19685B6809182160D8
:1038BC0063605460CBE738BD8001002070B50E4EBC
:1038CC000C463168054611B900F0BCF83060214651
:1038DC00284600F0B7F8431C0AD0C41C24F003049B
:1038EC00A04207D0211A284600F0ACF8013001D1D3
:1038FC004FF0FF34204670BD840100202DE9F041CB
:10390C00CD1C25F0030508350C2D38BF0C25002DDA
:10391C00074601DBA94205D90C2300263B60304643
:10392C00BDE8F0812E4E00F09DF833681C4634BB88
:10393C0029463846FFF7C2FF431C04464DD1346874
:10394C002646002E40D123683146384604EB030846
:10395C0000F078F880453AD1216803356D1A25F0CE
:10396C00030508350C2D38BF0C2538462946FFF7C2
:10397C00A5FF01302BD023682B4423600EE0226876
:10398C00521B1ED40B2A16D96119A342256018BFED
:10399C005960636808BF316062514B60384604F16E
:1039AC000B0600F065F826F00706231DF21AB6D0B8
:1039BC009B1BA350B3E76268A3420CBF32605A60F2
:1039CC00ECE723466468B2E734467668B9E70C2323
:1039DC0038463B6000F04CF8A1E72560DEE700BFFD
:1039EC00800100202DE9F041804614460E4621B995
:1039FC001146BDE8F041FFF781BF2AB9FFF716FF6A
:103A0C0025462846BDE8F08100F038F88442074688
:103A1C0002D8B4EB500F12D821464046FFF76EFF88
:103A2C0005460028EDD0BC422246314628BF3A4616
:103A3C00FFF7D4FE31464046FFF7F8FEE1E7354686
:103A4C00DFE7000038B50023054D044608462B601F
:103A5C00FDF7ECF9431C02D12B6803B1236038BD90
:103A6C0088010020014800F011B800BF8C01002033
:103A7C00014800F00CB800BF8C01002051F8043C48
:103A8C00181F002BBCBF0B58C018704770477047ED
:103A9C00F8B500BFF8BC08BC9E467047F8B500BF2F
:083AAC00F8BC08BC9E467047FF
:103AB40050574D3A2025336425252020202000002E
:103AC4004D6F64653A20312E436F61727365000057
:103AD400202020202020322E536D6F6F7468000048
:103AE400537465703A20313D312520323D31302503
:103AF4000000000043757272656E743A2020200045
:103B040025642525000000000203040506070809B2
:103B14000A0B0C0D0E0F1010010A0000000000002B
:103B24000000000001020304060708090000000069
:103B340001020304232D302B2000686C4C006566C1
:103B440067454647003031323334353637383941EA
:103B54004243444546003031323334353637383900
:083B6400616263646566000004
:043B6C00310100081B
:043B70000D0100083B
:103B74000A011EFF0024F4001000000001000000F0
:103B840014000020000000000000000000000000FD
:103B94000000000000000000000000000000000021
:103BA4000000000000000000000000000000000011
:103BB4000000000000000000000000000000000001
:103BC40000000000000000000000000000000000F1
:103BD40000000000000000000000000000000000E1
:043BE40000000000DD
:0400000508000EB130
:00000001FF
